:020000040000FA
:0400000019EF00F004
:100008003182D9CF02F0DACF03F0F3CF04F0F4CF86
:1000180005F00DEC08F005C0F4FF04C0F3FF03C0C1
:0E002800DAFF02C0D9FF3192110035EF0CF063
:101000000068656C6C6F20776F726C643121210011
:0910100052454144203D2000003E
:10101A009EAA12EF08F014EF08F075EF08F09E9AF6
:10102A00010EE8CFD9FE2EEED7F0400EDF6420EF96
:10103A0008F022EF08F03FEF08F0010E266ED7CE37
:10104A0025F0000EE8CFD7FE2EEED8F0DF50D8A458
:10105A0031EF08F033EF08F038EF08F0010EE8CF6F
:10106A00D8FE3FEF08F0000EE8CFD8FE3FEF08F0B9
:10107A003FEF08F02EEED8F0DF50D8A447EF08F083
:10108A0049EF08F05CEF08F0D7CE01F00150010DEE
:10109A00550EF324D96E0E0EF420DA6EAECFDFFFB2
:1010AA00D7CEE8FF010FE8CFD7FE75EF08F0D7CE0D
:1010BA0001F00150010D410EF326000EF422550EE7
:1010CA00F324D96E0E0EF420DA6EAECFDFFFD7CE40
:1010DA00E8FF010FE8CFD7FE75EF08F075EF08F0CB
:1010EA009EA87AEF08F07CEF08F0EEEF08F09DA8D2
:1010FA0081EF08F083EF08F0EEEF08F05ECFE8FF2B
:10110A00010AD8B48BEF08F08DEF08F097EF08F0DA
:10111A005FCFE8FF010AD8A495EF08F097EF08F02F
:10112A00EEEF08F09E982FEE5DF02450DE5CD8B00A
:10113A00A1EF08F0A3EF08F0BEEF08F02FEE5CF085
:10114A00DF50D8A4ABEF08F0ADEF08F0B2EF08F02B
:10115A00000EE8CF5EFFB5EF08F0000EE8CF5FFFA4
:10116A00000EE8CF5DFF000E246E9D989E98EEEF6C
:10117A0008F02FEE5CF0DF50D8A4C6EF08F0C8EFF5
:10118A0008F0D9EF08F02450010DC60EF326000E20
:10119A00F422550EF324D96E0E0EF420DA6EDF50C7
:1011AA00AD6E242AEEEF08F02450010D850EF326C9
:1011BA00000EF422550EF324D96E0E0EF420DA6EC8
:1011CA00DF50AD6E242AEEEF08F0EEEF08F0EEEFF6
:1011DA0008F012002EEED9F0DF50D8B4F7EF08F07D
:1011EA00F9EF08F094EF09F02EEED7F00850DE5C24
:1011FA00D8B002EF09F004EF09F00AEF09F094EF12
:10120A0009F094EF09F00AEF09F09EBA0FEF09F01E
:10121A0011EF09F00AEF09F0000EE8CFD7FE2EEE23
:10122A00D8F0DF50D8A41CEF09F01EEF09F035EF13
:10123A0009F02604D8A424EF09F026EF09F02CEFD0
:10124A0009F0000E266E010E206E30EF09F0000E36
:10125A00206E30EF09F0010EE8CFD8FE4CEF09F00E
:10126A002604D8A43BEF09F03DEF09F043EF09F05B
:10127A00000E266E000E206E47EF09F0010E206E5A
:10128A0047EF09F0000EE8CFD8FE010E206E000EDF
:10129A00216E89EF09F02050410D490E096E0E0E9C
:1012AA000A6E0C0E0926000E0A22F3500926F45083
:1012BA000A222150010DF3500924D96EF4500A2054
:1012CA00DA6E06C0E1FF07C0E2FFDFCFE7FF064A9A
:1012DA00072A2050410D490E096E0E0E0A6E0C0E99
:1012EA000926000E0A22F3500926F4500A22215038
:1012FA00010DF3500924D96EF4500A20DA6E000E5B
:10130A00DF6E212A89EF09F00850215CD8A090EFFE
:10131A0009F092EF09F050EF09F094EF09F012008A
:10132A0099EF09F099EF09F05ECFE8FF010AD8A416
:10133A00A1EF09F0A3EF09F0B1EF09F05FCFE8FFE1
:10134A00010AD8B4ABEF09F0ADEF09F099EF09F053
:10135A00B1EF09F0B1EF09F02FEE5CF0DF50D8A43D
:10136A00B9EF09F0BBEF09F0C2EF09F05CCF22F048
:10137A00010EE8CF5CFFC9EF09F05CCF22F0000E46
:10138A00E8CF5CFFC9EF09F0000E236EFEEF09F00B
:10139A0006C0F6FF07C0F7FF000EF86E2250410D97
:1013AA00490E086E0E0E096E0C0E0826000E092252
:1013BA00F3500826F45009222350010DF350082651
:1013CA00F4500922850E0824D96E000E0920DA6E1F
:1013DA000F0EF76403D00800F55005D0F6CFE9FFE9
:1013EA00F7CFEAFFEF50DF6E064A072A232AFEEFFD
:1013FA0009F006C0F6FF07C0F7FF000EF86E0F0EE1
:10140A00F76403D00800F55005D0F6CFE9FFF7CF0F
:10141A00EAFFEF500009D8A415EF0AF017EF0AF017
:10142A00CDEF09F019EF0AF023C008F0FF0E0826E5
:10143A0008C05DFF090E086E010E096E2250010DEB
:10144A000850F3260950F422550EF324D96E0E0ED5
:10145A00F420DA6E010EDF6E9D8812005BEC0CF050
:10146A006AEC0BF0800E146E250E156E000E166EC9
:10147A00000E176E2EEE49F002D84EEF0AF0050064
:10148A00FA6EDE50FD6EDE50FE6EF850FF6EFA50B8
:10149A00120050EF0AF02EEE51F002D85FEF0AF078
:1014AA000500FA6EDE50FD6EDE50FE6EF850FF6EDD
:1014BA00FA50120007BE6BEF0AF0075009E1060E58
:1014CA00065CD8A06BEF0AF06DEF0AF0AAEF0AF0FB
:1014DA00270E066E000E076E050E086E2EEE53F0EE
:1014EA0002D882EF0AF00500FA6EDE50FD6EDE5079
:1014FA00FE6EF850FF6EFA501200100E066E100EB5
:10150A00076E2EEE4DF002D895EF0AF00500FA6E3E
:10151A00DE50FD6EDE50FE6EF850FF6EFA5012007D
:10152A00270E0A6E000E0B6E2EEE4FF002D8A8EFB1
:10153A000AF00500FA6EDE50FD6EDE50FE6EF850BF
:10154A00FF6EFA501200AAEF0AF0010E0A6E100E90
:10155A000B6E2EEE4FF002D8BDEF0AF00500FA6EC0
:10156A00DE50FD6EDE50FE6EF850FF6EFA5012002D
:10157A00520E1F6E2B0E1E6E000EE82EFED71E2E6A
:10158A00FCD71F2EFAD700F000F050EF0AF050EF08
:10159A000AF019EF00F0000E0F6E0DBED9EF0AF037
:1015AA00D7EF0AF0E5EF0AF00D1E0C1E0B1E0A6CAF
:1015BA00000E0B220C220D22010E0F6EE5EF0AF02F
:1015CA0009BEECEF0AF0EAEF0AF0F8EF0AF0091E9A
:1015DA00081E071E066C000E072208220922010EA9
:1015EA000F1AF8EF0AF0000E106E000E116E000EC0
:1015FA00126E000E136E0A500B100C100D10D8B498
:10160A0009EF0BF00BEF0BF04DEF0BF0010E0E6E26
:10161A0017EF0BF0D8900A360B360C360D360E2A19
:10162A0017EF0BF00DAE1CEF0BF01EEF0BF00FEFE8
:10163A000BF022EF0BF022EF0BF0D8901036113698
:10164A00123613360A50065C0B5007580C500858CD
:10165A000D500958D8A034EF0BF036EF0BF041EFDC
:10166A000BF00A50065E0B50075A0C50085A0D50E0
:10167A00095A108041EF0BF0D8900D320C320B3220
:10168A000A320E2E22EF0BF04DEF0BF04DEF0BF05E
:10169A000F50D8B453EF0BF055EF0BF05FEF0BF090
:1016AA00131E121E111E106C000E1122122213227A
:1016BA005FEF0BF010C006F011C007F012C008F07F
:1016CA0013C009F069EF0BF01200540EE8CF49FE7F
:1016DA00170EE8CF4AFE380EE8CF51FE180EE8CFB3
:1016EA0052FE2A0EE8CF4DFE130EE8CF4EFED00E64
:1016FA00E8CF4FFE170EE8CF50FEDE0EE8CF53FEBE
:10170A00110EE8CF54FE980EE8CF4BFE180EE8CF24
:10171A004CFE000EE8CFD7FE000EE8CF5DFF000EAC
:10172A00E8CFD8FE000EE8CF5CFFF2BE9FEF0BF0C9
:10173A00A1EF0BF0A3EF0BF0F28EF28C9E9A9E981B
:10174A009D989D8A949C948E1200000EB86EB8865D
:10175A00240EAC6E900EAB6E14C00AF015C00BF0DE
:10176A0016C00CF017C00DF0000E066E900E076E34
:10177A00D00E086E030E096ED0EC0AF006C018F0FF
:10178A0007C019F008C01AF009C01BF018C006F00B
:10179A0019C007F01AC008F01BC009F0040E0A6E3F
:1017AA00000E0B6E000E0C6E000E0D6ED0EC0AF0E1
:1017BA00FF0E06241C6EFF0E07201D6E1D50B06E14
:1017CA001CC0AFFF12000AC006F00BC007F02EEED5
:1017DA004DF002D8FBEF0BF00500FA6EDE50FD6EFD
:1017EA00DE50FE6EF850FF6EFA5012002EEE4BF0ED
:1017FA0002D80BEF0CF00500FA6EDE50FD6EDE50DB
:10180A00FE6EF850FF6EFA500D0E12002EEE4BF0DF
:10181A0002D81BEF0CF00500FA6EDE50FD6EDE50AA
:10182A00FE6EF850FF6EFA500A0E12001200D9CE60
:10183A00E8FF010AD8A424EF0CF026EF0CF032EFEF
:10184A000CF0D7CE08F0010E0824066E076A000EC7
:10185A00072234EF0CF034EF0CF006680768120028
:10186A000EEE49F011EE17F0EE6AE550E150FCE198
:10187A00E250FAE100EE20F0110EEE6AE806FDE110
:10188A0031903192000EF86E000133EF0AF0066EC5
:10189A004FEF0CF0ACA254EF0CF056EF0CF04FEFF8
:1018AA000CF058EF0CF006C0ADFF12005EEC0CF025
:0418BA001200120006
:020000040020DA
:08000000FFFFFFFFFFFFFFFF00
:020000040030CA
:0E000000FF061F1EFF8981FF0FC00FE00F409B
:00000001FF
